:020000040000fa
:080000006e0104000000000085
:020000040000fa
:100008001018000014180000181800001c18000030
:100018002018000024180000281800002c180000e0
:100028003018000034180000381800005001000093
:100038004018000044180000481800004c18000040
:100048005018000054180000581800005c180000f0
:100058006018000064180000681800006c180000a0
:100068007018000074180000781800007c18000050
:1000780080180000b41900008418000088180000d7
:100088008c180000901800009418000098180000c0
:100098009c180000a01800005a010000640100002c
:1000a800ac180000b0180000b4190000b419000022
:1000b800b4180000b8180000bc180000c0180000f0
:1000c800c4180000c8180000cc180000d0180000a0
:1000d800d4180000d8180000dc180000e018000050
:1000e800e4180000e8180000ec180000f018000000
:1000f800b4190000f4180000f8180000b419000042
:10010800b4190000b4190000fc1800000019000020
:1001180004190000081900000c190000101900004b
:1001280014190000181900001c19000020190000fb
:1001380024190000281900002c19000030190000ab
:100148003419000038190000b4190000b41900006f
:10015800b41900003c190000b4190000b4190000db
:10016800b4190000401900004419000048190000a3
:100178004c190000501900005419000058190000cb
:100188005c1900006019000064190000681900007b
:10019800b4190000b41900006c19000070190000af
:1001a80074190000781900007c19000080190000fb
:1001b800b41900008419000088190000b41900005f
:1001c800b4190000b41900008c190000b41900001b
:1001d800b419000090190000941900009819000043
:1001e8009c190000a0190000a4190000a81900001b
:0801f800ac190000b019000071
:020000040000fa
:100200000018000000bf0a0004bf0a0018bf0a005f
:1002100030bf0a0000c00a00000000000018000003
:1002200000bf0a0004bf0a0018bf0a0030bf0a005e
:100230000000000000180000001800000c1800006a
:1002400028bf0a002abf0a0000bf0a0006000000fb
:10025000ffff0000ffffff0018bf0a00240000009e
:1002600008ff0000ffffff0019ff0000ffffff0075
:10027000caf70000ffffff00fbff0000ffffff00c9
:10028000de7f0000ffffff00efff0000ffffff0029
:1002900014bf0a0006000000ff7fff00ffffff0001
:1002a0005808af003c1804000000000022160400ab
:1002b000000000005828af00a4180400000000004f
:1002c0009e020400000000005848af00a818040077
:1002d0000000000038030400000000000f97200019
:1002e0000eff27000e018800000000000000200023
:1002f0000000e0000200320000012000200288001f
:10030000140007000b0107000000e00003003a00a2
:1003100040482100010020000200370000002000ba
:1003200001002000810f700001003200140007005e
:10033000000020000000e000020032000000020087
:10034000000000005c0b0200000000000040da002a
:100350000000fe004440a900e00220000000e00090
:100360000300320000202000900188004440a800d3
:10037000000006008a1f78008b1f7800000006002e
:10038000a1028800800478000000eb001f00370005
:10039000e284440054a0b4009905ba00e284440009
:1003a00054a0b4009906ba00e284440054a0b400fa
:1003b0000006eb00476fde00fd07b200ae018800cb
:1003c000636ce10003003a00eaff07000000eb0065
:1003d0000e003700606ce10008003a00004deb00b1
:1003e0000a05e800020039003420ec000af0a00001
:1003f0008b05e900f9ff3e00040037006168e10069
:10040000010032000086eb000b00070019c7ba009c
:100410001905ba000e04e00003003a000a00e000eb
:10042000dbff3a0000000600fe07b200ae028800c3
:100430008a047800f5ff37000cd0a300e20f4d00ce
:100440001c00390089027800354dba000a05e80021
:10045000020039003420ec000af0a0008b05e9000e
:100460000f003200254dba000a05e80002003900ed
:100470003420ec000af0a0008b05e90008003200ef
:100480000c00e0000600320015cdba000a05e800b5
:10049000020039003420ec000af0a0008b05e900ce
:1004a0008984e80054a0b4000b00e000e2ff3a00a9
:1004b000000006009902ba00055d78008b05e9008e
:1004c000f7ff3200c82ade00055d78008b05e900e1
:1004d000f3ff32000c00e000f1ff320019ddba003a
:1004e000eeff3700aa150400000000007e1704008c
:1004f000000000002216040000000000ac110400ff
:10050000000000007e1004000000000070160400cf
:1005100000000000a2120400000000009e0204007f
:100520000000000038030400000000000000040088
:10053000000000000010040000000000809fbe00ca
:10054000829fbe00849fbe000800fa0020002000a9
:100550008bc0a9003c003700a21d8000811d8000d7
:100560000118a30002003200b023a9000040a0003f
:100570000128a300010032000050a0000138a300b0
:10058000010032000060a000d1342400c1bf9f00f0
:1005900051052500d1bf9f0081342400e1bf9f0099
:1005a0005120b000f1bf9f00a34a8000e7816100a5
:1005b000e882570065c27900844f51000a003a0072
:1005c0008300e800a14a8800e88f50000d003a003f
:1005d0000070a000c1922000014388000194200017
:1005e00011438800070037008001eb00a34a880010
:1005f0008ff99700834f510002003a00110020004c
:10060000a14a88006149800023932000938f500005
:10061000020039000040a0000b0037007149800043
:100620008258780071498800a249800093014100f6
:10063000838f5000010039007249880012002000a9
:10064000c192200091084100b003ab00c2ff3a0004
:10065000f149800000807000f04988000080fa00b5
:100660004f02be004f01be004f00be00004006001a
:10067000809fbe00821f78008be0a9001300370026
:10068000004a80000000e00012003200204a800092
:10069000b080fb00911d8800204a8800414a8000fc
:1006a0006294200012814000820f50000100390046
:1006b000214a8800110020000094200010881000ba
:1006c000904a80000000a000904a8800b123ab004f
:1006d000ebff32004f0178004f00be0000400600e3
:1006e000889fbe0001047800820478000100200089
:1006f0000100e00004003200090178008800780061
:100700000000020000000000090178008800780065
:10071000d04a80003a130200000000004f04be00df
:100720000000060001007800e14a8000ec1004009f
:1007300000000000000005006022b8000602200052
:100740000000d0008180d2000482d2008582d200d5
:100750000000a0000202520083825a000300310010
:100760000202420083824a000000a1000603e90061
:10077000f3ff3a000000060009003700304278001d
:10078000b1417800834f5200040032001000200075
:10079000060031000080eb00000006000201e900c5
:1007a0000200e000f5ff3a000000eb000000060048
:1007b00003000000a0d60000a0760000a0660000a4
:1007c00008000000660600006616000066260000ad
:1007d0006636000066460000665600006666000049
:1007e00066760000007c0000fcff000093c700005c
:1007f00007fe0000d8770000f8570000bdae0000eb
:1008000024cd0000edad0000544800006f06b0009c
:10081000889fbe008a9fbe008c9fbe008e1f7800fe
:10082000000478006008e2006f02320002802100bc
:1008300003002000b28f9f00c38f9f00d28f9f00c4
:10084000e38f9f008004eb000143800011067800d5
:10085000180178008001eb00e80f5100e08f59008b
:100860005b023e0002600100080037002a003700ea
:10087000bd003700e2003700160137007201370073
:10088000a8013700e0013700f80137000005eb0050
:100890001c0037004200200020f92f000f0040000c
:1008a000e81002000000000020c4240021232400de
:1008b0001f899700af899700800f5100818f5900e1
:1008c00009003a0011438000110178000000eb009c
:1008d000ec100200000000001a0020000a0c780052
:1008e0008a057800000237001200200001438000d2
:1008f00000f92f000f004000ec1002000000000083
:100900001a0020000143800032002000910f1100e6
:10091000e0ff3e00ba0137006055b800f002200049
:10092000800f5600f00136000203200020fc2f004b
:100930000f004000ec100200000000000303200044
:1009400022fc2f000f0141006000b800c813020014
:1009500000000000400c9800510c98003fa0970048
:10096000cfa097008002b1000180b100200c980058
:10097000310c98001a0020004a14980023fc2f0024
:100980008f8141006880410002012000613f280002
:10099000bc030200000000000000e000050032007f
:1009a000a0fe2f004014980080002000000c78006a
:1009b000cd013700e40544005fa89700efa8970039
:1009c0007fa997008fb19700809dbe008295be00e1
:1009d000240120008000eb005f899700ef899700d9
:1009e00000fb2f000f004000081202000000000072
:1009f000000020000000e00017003200d02c210091
:100a00008fa09700808f500013003a0028029000ba
:100a1000b802900048039000d80390000f98970008
:100a20009f9897002f999700bf9997000020e100a9
:100a300001a8e10002b0e10003b8e10006003100c6
:100a400090fe2f004014980070002000000c7800e9
:100a50008a057800a4013700000020000000e000b3
:100a60000e003a0090a79f0000012000f0879f0031
:100a700002fe2f000f0141009fa09700d28070005e
:100a800091a79f000000e800f70f5000faff360022
:100a9000f0879f000100e000e4003a00e0772100c9
:100aa0000000e0001200320028099000b809900010
:100ab0000204b0000380b0000b02780011438000f4
:100ac000004380007e170200000000000000e000ec
:100ad00007003c0050fe2f004014980070002000da
:100ae000000c78001a0020008a0578007e0137008b
:100af000b94a80000900e00012003200800920009d
:100b0000820a2000000151008000eb00a0170200c3
:100b1000000000005828ef005a28ef000000eb000a
:100b2000b04a88005a17020000000000004380000d
:100b3000f21402000000000010438000f2140200d2
:100b4000000000000000eb00700c98008000200006
:100b5000100498006000b800001498001114980068
:100b600020002000000c7800104380001000e000fe
:100b700007003a00e1f82f008f80400032f12f008b
:100b800082287800220020003a13020000000000b2
:100b90000900e000010032000060fe001800900033
:100ba0006408b400703eb10088109000010040005d
:100bb000204388007e0044000a0c02000000000070
:100bc000800678001a0020008005eb000d00e00090
:100bd00045013a00e1f82f008f80400010f12f000e
:100be0008028780022002000104380003a13020081
:100bf0000000000000438000100678006d0c980093
:100c000040002000000c780028089000b8089000f0
:100c100042022000820f5000e08f580006003e0084
:100c200040022000700c9800600020001004980022
:100c30001a00200028003700081190009811900039
:100c4000e00f5100e08f590006003a0080002000bc
:100c5000700c980030002000100498001a0020004a
:100c60001d003700f03d20006428b400c0002000c3
:100c7000700c9800800f5600010036007c0c980024
:100c8000f808900000032000808f5000010036001b
:100c9000700c9800780b90006132b800820f5200ff
:100ca000838f5a0002003900720c9800050037004b
:100cb00062002000110009000283d80001005300e7
:100cc000700c980050002000100498001a002000ba
:100cd000010037000005eb0000438000b0009000e9
:100ce0006808900000815000f2879f00f34f510088
:100cf00002003a000201e900f2879f007f49970055
:100d0000f34f510003003a007f8197000280a20058
:100d1000f2879f0022012000810f510001003e0058
:100d200082007800ff86970078099000818f560036
:100d300002003100800f510013003600800f510077
:100d40000600360010438000b00090001080500074
:100d50008005eb00e10f5000e3003600e1f82f00c2
:100d60008f8040008d2878002200200010438000f2
:100d70003a13020000000000680890008d06400051
:100d80006d0c98001a002000780990008005eb0097
:100d9000820f5600d400390028089000b80890004f
:100da00002005000e0805800200c9800310c9800a0
:100db0006808900002005000600c98000143800019
:100dc00020fc2f000f004000ec100200000000008b
:100dd000f809900022fc2f000f0141004808900004
:100de000d8089000c813020000000000400c9800d2
:100df000510c980018009000e30f50000d003a00cd
:100e000000022000080040007809900021fc2f001b
:100e10008f804000e016020000000000b8609000e3
:100e20007860900000c0700002003200b0fe2f0019
:100e300029ff370098019000030c78001a00200069
:100e40008a057800a80037005f889700ef88970030
:100e50006c004000e0804800f08f9f0081979f0069
:100e60000900e000010032000060fe00a6f92f003a
:100e70000f034300150020000002eb00f80990006a
:100e800022fc2f000f01410028109000b8109000a4
:100e90000609020000000000908f9f00a18f9f00b4
:100ea00024fa2f000f024200f809900022fc2f00c4
:100eb0000f01410028109000b81090007a0e020037
:100ec000000000001f899700af8997002214980046
:100ed00033149800f80890000811900098119000c1
:100ee00001015100e0815900021498001314980088
:100ef00031002000010c78000000e00002003d00fd
:100f000080fe2f00f4fe37000000e0007400320085
:100f100070fe2f00401498001a0020008a05780007
:100f200071003700e1f82f008f8040008028eb002f
:100f300022002000104380003a130200000000004d
:100f400048099000d8099000c0f12d0041142200fa
:100f5000800f5100818f59001c003a00d02c2100d5
:100f600080a79f0028009000b800900048019000e2
:100f7000d8019000809f9f00919f9f00a29f9f009b
:100f8000b39f9f007fa897008fb097001fb1970075
:100f9000afb19700c09f9f00d19f9f00e29f9f002d
:100fa000f39f9f00f03d20006428b400230120003f
:100fb00002fb2f000f0141005f889700ef88970028
:100fc00004090200000000000200370060fe2f004c
:100fd00040149800e1f82f008f80400048119000e5
:100fe0008228780022002000104380003a1302007b
:100ff00000000000000ceb006028ef001a00200049
:101000008005eb003800370010438000b0009000ee
:10101000908050006055b800e48f500032003600d8
:1010200081002000010c7800eef82f000f07470028
:101030000a2f7800220020008e0078003a13020068
:1010400000000000c8119000838f9f002200200044
:101050008e007800104380003a1302000000000068
:101060001a0020008a0578001f0037006055b8007c
:101070000c00e0001c00320028099000b809900024
:101080006162b800820f5200838f5a000600390057
:10109000020678000000eb00ec10020000000000e7
:1010a000000ceb006028ef000c0178000143800089
:1010b0000000eb00ec100200000000002808900087
:1010c000b80890000c065000e08658002c0c9800e0
:1010d0003d0c98001a0020008005eb00020037004c
:1010e0001a0020008a057800fa15020000000000ae
:1010f0000006be000a00e00002003200000c98006a
:10110000110c9800080990009809900002015600ff
:1011100083815e0068009000f8009000800f51000d
:10112000818f59001d003600c0fe2f00401498002a
:101130001880e900e30f500014003e00eef82f0085
:101140000f074700002feb00220020008e007800e0
:10115000104380003a130200000000004810900085
:10116000808f9f00220020008e00780010438000b6
:101170003a130200000000000081eb0001438000f0
:101180000000eb00ec100200000000000c0c9800c6
:101190001d0c9800000ceb006028ef00004380005d
:1011a0000000e0000300320089857500a6fd3a00ca
:1011b000080037000900e0000600320068019000d6
:1011c000f80190001043800082130200000000002c
:1011d0000000fe0000f0a7000000ea000000e900a7
:1011e0004f00de00010037000000eb004f077800e1
:1011f0004f06be004f05be004f04be006f06b10093
:10120000000006000000fe006022b8000300e000bd
:10121000a1003200c80bde009f003a00573e2000bc
:10122000871f78005400f800889fbe008a9fbe0088
:101230008c9fbe000178a30006003a0004d8a300ea
:10124000020032006147af000160a20004c0a700a5
:101250000160a0003b0024002d00200004f0a0004d
:101260002c7620000c00e0000600320004f0a10003
:101270000b002400e8cf4000020032004d002000a7
:101280001b0024000600fa000d06d0008c874700e2
:101290008e0378008b1b7800809bbe000f047800c3
:1012a0008004eb00dcea2d000c28e1001100320084
:1012b000c22add00030032008502e9000580090032
:1012c000b61f780006002000a6028800c510200086
:1012d000c600200061e7af00feff370002003700c4
:1012e000951fba00b59fba000683e900fcff3100e4
:1012f000888457006408f8006428ef005500370020
:101300008f0578000d06e9000c800900809feb0036
:101310000300e90000800900b25d780003815500f8
:101320008001eb008d00d0000f00a7008000eb00d3
:101330000d00d10002000900b25b780080dbeb00f9
:101340000000e900fbff3a00818757000d06e90025
:101350000c800900c70f48003a003100c70578002b
:10136000470578008d00450060864d0064035400f9
:101370008903780064034300e883530007003900c1
:101380003608e10036e0e100faff34003650e100b3
:1013900036d8e100f8ff31002a00370000002000b5
:1013a000a10f20006203470004f0a7003600be0032
:1013b000a10288008d00d1008e03780006762000ff
:1013c00061e7af00feff370002000900371b78001d
:1013d0003708bb003798bb008100e900fcff3a00ea
:1013e0006a322100feb097007fb897000100b80074
:1013f0008a0350000a0020001a00a0000000eb0041
:101400001a00a700feff370004a0a7000060fe003e
:10141000b817020000000000070b7800b109b00007
:10142000010b780061e7a800000000000000000048
:1014300004b8a30061e7af00feff3a00d417020032
:1014400000000000e20347000000eb00979b46000d
:10145000971b48000d00d10000804600808151009c
:10146000b2ff310080814100a5ff3a0000ff230058
:101470006027b6008027eb001e009000ae009000b1
:101480000080fa004f06be004f05be004f04be00ac
:101490005400f9008027eb006428ef0000000600ec
:1014a000889fbe00a10920000001eb0080072000fa
:1014b0001310200080497800814978008249780023
:1014c000020880000200a0007105200060042000d6
:1014d0000310200080497800814978008249780013
:1014e0000001ab00feff3a0000122b00100888003c
:1014f0000c21ef000000280030088800a10920001e
:10150000120020008007200013102000804978007e
:101510008149780082497800020880000200a0001a
:10152000710520006004200003102000804978002d
:1015300081497800824978000001ab00feff3a0043
:10154000000880004c00de0065006000e10f5000e4
:1015500004003a00010220000208800002806000be
:10156000fdff320008402200490f2000a8428800f9
:10157000b9428800a8428800b942880000e82300e8
:10158000804288005228ef0000012000404388007c
:101590002d0507009fa6a8009ee6a8009ec6a800ed
:1015a000a6e6a900a6c6a9006666ef006266ef007f
:1015b0006a66ef00b666ef00b266ef00ba66ef004b
:1015c000a286a900a2a6a9009e86a9009ea6a9009f
:1015d0007be6a90077e6a9007fe6a900a386a8001c
:1015e0009f86a900ece6a800dac6a800dae6a80003
:1015f000db06a800e2c6a900e2e6a900e306a9000e
:1016000001fc2f00e23d800002806000a001b300d9
:10161000e03d8800f00f2800423f8000820160001a
:1016200002b0200003017100423f8800323f800079
:101630008201600002a0200003017100323f880097
:10164000d686a800b23d800082806000a100b30071
:10165000b13d8800e407b600015020008080700092
:10166000213f8800c0082000924280000091b9000c
:10167000814280000008b800810041004905070050
:1016800000ff2f005401070000942000d04a88007a
:10169000c0922000e04a8800e04288007686a800d8
:1016a00076a6a8007e86a8007ea6a8000800be0038
:1016b0004f04be0000000600e6874700889fbe007a
:1016c0008a9fbe008c9fbe008e1f78005828ef00b6
:1016d0005a28ef005629ef006428ef006028ef0039
:1016e0005e28ef006eff0700e08c20000008eb0092
:1016f000a0428000b1428000d0468800e1468800c8
:1017000082428000934280004518dd00cb10de004d
:10171000810070004510dd006022b8006033b80021
:101720000002520081825a0060035b00e0835b008c
:10173000a15a2100809120005c0307002d050700bd
:101740000006be00f0b79f0081bf9f00ae8d200055
:101750009a1f8400ab1f84000060fe00250507006f
:101760000004be00a0428000b1428000cc09dd0030
:101770004400de0000807100c408de000c0154004b
:101780008d815c00800f5100818f5900040036006c
:101790000c0640008d86480010002000ff05070061
:1017a000e0428000900890000100e0000500320057
:1017b0008000eb0011089800f8b79f0089bf9f00d8
:1017c000120037007fb197008fb9970002045400d0
:1017d00083845c00be0f5400ae8f5c000b003600ab
:1017e000e00f5500e08f5d0002003c000a01be00e2
:1017f000c3010700070407000000e00003003200f7
:10180000f00f2000b4050700960507000140fe0018
:10181000d1ff37000c00fa00889fbe008a1f7800b5
:10182000000578000010200001002000f0b79f00a4
:1018300081bf9f00c00020000100200080047800cc
:101840000004eb003f00370072805700bc16020016
:101850000000000090bf9f00a1bf9f00b2bf9f008b
:10186000c3bf9f002f0037000804e8009a0f540000
:1018700024003600080d78001fba9700afba970011
:101880004200200003002000801120000100200001
:10189000bc140200000000000000e00019003a0043
:1018a000cff29700e9cf420005003600100020007b
:1018b000b20c0200000000001000200025003700dc
:1018c0001fb89700afb897009616020000000000fe
:1018d0000000e0000b003a00e07b20006428b40028
:1018e0001fb89700afb897008215020000000000f3
:1018f0000000eb00b20c020000000000100020000d
:1019000014003700008020008000eb001fbb970010
:10191000afbb97000000430081804b0090bf9f0049
:10192000a1bf9f001fba9700afba97003fbb9700b7
:10193000cfbb9700860f5200878f5a00caff39002d
:10194000e48454000900e000bfff3a006428ef007f
:101950000000eb004f0578004f04be000080fa0045
:10196000000006000a00fa00889fbe008a9fbe00a1
:101970008c9fbe00300798004f079800c0022000df
:1019800001002000c0170200000000000002be009d
:10199000800578008080e8000100a1008187470071
:1019a0004e0590008000eb00421220000300200052
:1019b0000a0078000812020000000000330037001f
:1019c0000040eb00504798000a007800b0407800d3
:1019d00021479800b04078003147980010407800c7
:1019e0004047980063004500104f78004a4090003f
:1019f000104798002a409000e84f40000400320051
:101a0000140020000004e00005003d000100370044
:101a1000840020003e0090000000e000160032002c
:101a20001e067800e60645001e049000ae049000f5
:101a30008002eb008c0178000d0178000800be00e8
:101a4000580d0200000000000000e0000a00320013
:101a5000f03d2000204388000003eb00d5ea2d0074
:101a60000002eb008c0178000d0178000800be0038
:101a7000020f0200000000001e0078008085550063
:101a8000e68555006600400000054500e68f5500dc
:101a9000cbff3e00ce0790004f06be004f05be00b4
:101aa0004f04be000080fa00000006006022b8006b
:101ab000889fbe008a9fbe005400f8000500e00029
:101ac0004220af008f027800e48242000178a30038
:101ad00006003a0004d8a300020032006147af00bc
:101ae0000160a20004c0a7000160a000a10288005c
:101af0008000eb0061e7af00feff37000300370016
:101b00000080e8004200af005420ec008301e900af
:101b100029003900821a7800d1002000f6ff2f003a
:101b2000f70f2000324378008301e90005003900f7
:101b3000b24878008301e90003003900b24378001d
:101b4000020037000430a0000420a0001004ba00f6
:101b50009084ba00889abe00869abe00e30f6200a5
:101b60000b0032000683ea0087c3ea000805630021
:101b7000898563000400a7000a03be0008057300fe
:101b8000898573000410a7000a03be006044b800f2
:101b90000803530089835b00ec0f620003003200ee
:101ba0008003eb000430a700f60fb200ea82520077
:101bb00087007300d2ff3200a602800086227800e0
:101bc00080227800010078005400f9004f05be0023
:101bd0004f04be0000000600889fbe008a1f7800e8
:101be00000057800880020000900200010c0b30024
:101bf0000a00e000010034000040eb0061006000da
:101c00004500dd00880078000150a100010470004b
:101c100009a0a00009c0a00009f0a00078c1a80098
:101c20009be0a9009bc0a9008bc0a9008be0a90084
:101c300078c1a900c41a21008001eb000006200031
:101c40000100200000017800e1862000c092200001
:101c500000170200000000000002eb00e307210073
:101c6000000220000100200000017800818f200088
:101c7000009420000017020000000000e001200096
:101c8000e0498800f0012000804a880000672100b8
:101c9000d0498800202a2100704a88000af0a70055
:101ca0000a05ea00ba1d8800781d8800891d880091
:101cb00008f0a000781d8800891d88001100200010
:101cc000400020000008dd0021002000efc060007f
:101cd00002cfb3000240600001407000b7e0b700df
:101ce000c8170200000000004f0578004f04be0036
:101cf00000000600f0874700889fbe008a9fbe0054
:101d00008e1f78000204be00040778000e00e00079
:101d100001003a00788757006055b8008e027800bd
:101d20000b0278000801be00580d02000000000000
:101d30000000e0002b0032001e02be0082002000e6
:101d400003002000c011200001002000bc1402008c
:101d5000000000000000e00013003a002e40900058
:101d60000004e00006003d000b00e0001a003a000d
:101d70001e00be002e0490009b002000e7ff3700ed
:101d80001e02be00c200200003002000c010200080
:101d900001002000bc140200000000000000e00070
:101da0000f0032001a002000e38f54000d003600af
:101db0002e01900082845400e3845400890444007e
:101dc00024002000050020003e004200ae804a00b2
:101dd00063044100d1ff3700caff2f000100370024
:101de0000085eb000a0078004f0778004f05be0021
:101df0004f04be000f01b100000006000000fe000d
:101e00006022b8000178a30006003a0004d8a300bd
:101e1000020032006147af000160a20004c0a700c9
:101e20000160a000809fbe00829fbe005400f800a9
:101e3000a10288000300e0002c00320067002000af
:101e4000e39f5300267620000600e00004003200e5
:101e5000f7bf9f000010a70004f0a0000010a10031
:101e60000000a10061e7af00feff3700ffbb970055
:101e70008080eb0090c0ba00901fba00cf9f600036
:101e80000080e8006638e10005003a0090c0ba0022
:101e9000cf9f60009000ba00cf9f60000080e800f4
:101ea0000000e0004220af005420ec0004f0a70046
:101eb000e383530004f0a100cf8fea0004003a004e
:101ec000070141008781510007003600e7ff370016
:101ed00000d9eb008301e900030032008703e90029
:101ee000fbff3a00e1ff37008f87e9005400f9005b
:101ef0004f01be004f00be000609040000000000b4
:101f0000889fbe00800478000202be008081eb0042
:101f10000900e00037003200890890004808de0020
:101f200034003a0088392000fd8f5000110036003f
:101f3000e83a200010052000808f50000d00360088
:101f4000483c200066004000808f500009003600a9
:101f5000083d200077004000808f500005003600cb
:101f6000883e200063004000808f500001003e004a
:101f7000c83d20000401be00a0428000b1428000a4
:101f8000ee12020000000000c80190000000e00016
:101f90000e003400400498001858a3000e003200d0
:101fa0001850a1001800e0000b003d0018f0a1003f
:101fb0001850a10000002800180c70009800900034
:101fc00001a0a00011049800030037000000ea00ff
:101fd000400498001850a0009908900000002800c4
:101fe00001007000900c9800990890000150a10029
:101ff000910c9800030078004f04be00000006001a
:102000006aa8bf003a003200cfb89700cd08de00c2
:1020100037003a004460af0035003a006c08ac006d
:1020200033003a003600f8003200f8003400f800bf
:102030000000f800849fbe00869fbe0035438000ec
:10204000c64a8000374b8000950213003783180082
:10205000978318004260ef00a48620008401780076
:10206000148210001b003200620042003028e100a0
:1020700030b0e10030b8e100f8ff3300849fbe00cb
:10208000869fbe00b082100030831800b083180015
:102090004220af0094097800548a4200540a4b0051
:1020a000548a4b00e605210007002000869fbe00f1
:1020b000b01f7800b01f7800004006004260ef00bb
:1020c0004f03be004f02be00100a98008000eb00d4
:1020d000e2ff37004f03be004f02be000000f900d0
:1020e0003400f9003200f9003600f9006c08a9004c
:1020f0004f01be00cf00780000400600889fbe0060
:102100008a9fbe008c9fbe00000478000105780005
:102110008204780083057800b123ab0001003a0007
:102120008be0a800890f540021003200fa1502004c
:10213000000000000006be000000eb00d005980083
:102140008a00e20003003d0080332000ac1702004b
:102150000000000008815400880045000b00780052
:102160003a1302000000000000044400890f5400ec
:102170000d003200fa150200000000000c015000b2
:102180008d815800a0428000b14280004e0add00df
:102190004200de0000007200c208de00800f510025
:1021a000818f5900e6ff3900e0072100d005980033
:1021b000904a80000020a000904a88000800780023
:1021c0004f06be004f05be004f04be0000000600d3
:1021d0008002eb000f00a7008082eb00e08140004e
:1021e0004220af0000000500851f7800801fe80036
:1021f000030090000200e1004200af0002007800fe
:1022000023029000b30390004303900007034300b0
:10221000cf00e9001a003200840353000038e100c7
:102220004200af00e0035000030032008702e900e3
:1022300005800900b45878000620e1004200af0094
:102240004302900087035000030032008702e90038
:1022500005800900b4587800808050004f00e000ed
:102260000200320093091000a4019800e3039000db
:102270000700e0004220ae00070001000000060059
:10228000000242000620e1004200af0007025200b7
:1022900000017800f1ff3700c800de004220af00e7
:1022a00000000600120280004811dd004460af000b
:1022b0000270a000cf1f71006200b8004001b000a2
:1022c000c2ff2f000200e0000300330083e0af00f4
:1022d000020040001c0037008300ae001a003700e7
:1022e00002f12b00a10020008101710016003200d4
:1022f000801f780000f12b00901702000000000002
:10230000809fea0000f02b00a1002000901702003f
:102310000000000000017800cf01e9004f007800c4
:102320008000eb0002f0a6000230a7000600370094
:10233000f4ff210084816100048020000321b800a3
:102340000200400083804800901702000000000057
:10235000809fbe0000000600889fbe008a9fbe00ce
:102360008c9fbe000004780001057800820478008c
:1023700083057800890f54001d003200fa15020011
:10238000000000000006be000000eb00e005980021
:102390008bc0ab0003003200e0292000ac17020024
:1023a0000000000008815400080045008b00780000
:1023b000ec1002000000000000044400888f54006c
:1023c00009003200fa150200000000000c01500064
:1023d0008d815800a0428000b1428000800f5100e2
:1023e000818f5900eaff3900c01a2100e0059800ea
:1023f000f04980000030a000f04988000800780013
:102400004f06be004f05be004f04be000000060090
:102410000400e00009003200800278006208b80081
:1024200036002000110009004688d8000001410054
:102430000380b000a7028000a302880061e7af001c
:10244000feff3700610252000200a7000b003700b8
:102450000201e900610242000110a6000b003700f2
:102460000281e800925aba000482e9000d003900a6
:1024700002003700d25aba00d25aba00c2daba0001
:102480000201e8004220af005420ec006302520039
:10249000f8ff3100620242000200330004800900ac
:1024a000d25aba00a702880000000600801feb0085
:1024b000811f7800801f7800861f7800851f7800b4
:1024c000841f78001c17020000000000fa150200ab
:1024d000000000008003eb004f825300cf825b00be
:1024e0004f835b00cf01780014003200a7862000e4
:1024f000971978000b003300841940008599480033
:10250000861949008499be0086197800cf19780091
:10251000cf1978000000280080197800f48b510052
:10252000000006008419500085995800861959004a
:102530006022b8000003eb00f2ff3700e487570089
:1025400000000600889fbe008a1f78000004be00bd
:102550000205780008003700080078004a170200da
:10256000000000000000e0000300320008089000b6
:102570004c110200000000001800e0000f003200c3
:10258000fa1502000000000039015000a98158002e
:10259000ba0f5100aa8f5900efff3600070037002d
:1025a000fa1502000000000039015000a98158000e
:1025b000ba0f5100aa8f590004003e00b103ab00ce
:1025c000f7ff320010002000010037000000eb0090
:1025d0004f0578004f04be00000006000400fa001a
:1025e000881f78000202be00d2bf9f00e3bf9f0099
:1025f0000001eb00e00f5200e08f5a00190032009a
:102600000004eb005ff997000204e00005003d00c4
:1026100060021200e0821a00d4bf9f00e5bf9f0055
:10262000180020005fba9700efba9700040142003b
:1026300085814a0000004100818049004229dd0077
:10264000ce21de00830171004221dd009c030200e7
:10265000000000000001e9000800e0000100320075
:102660000201ea00020078004f0478000080fa00be
:1026700000000600e0014000020078002000320067
:10268000c3039000330390001302900093025300a1
:1026900006834300840353000028e1004200ae009b
:1026a00005007800800278000538e1004200ae00a5
:1026b000870278008503e9000200390007800900dd
:1026c000315a78000620e1004200af00430290003a
:1026d00005035000030032008603e900078009006b
:1026e000315a78009309400094019800d303900078
:1026f000808050000700e0004220ae00070001008b
:10270000000006000000e0004220af0010000500bd
:10271000881f7800829fbe0000047800fa1502002e
:1027200000000000809fbe00f80390000700e0005a
:102730000700320008007800e480570068815700e5
:1027400007000100e88757004f04780000000600ea
:10275000100020001800e000faff3200fa15020015
:10276000000000007fb99700efb997000200500009
:10277000838058005fb99700cfb997000200e1004d
:102780000388e100f2ff34000000eb00edff3700aa
:102790000080ea008180ea008500200006322800df
:1027a00087db2e0010003700b25a7800b252780052
:1027b00004006800840020008100d1000080d30064
:1027c0000200390006006800878068008100d1009f
:1027d0000080d3000200390006006800878068008e
:1027e0000402e900f4ff3a00e2815100eeff3b00f1
:1027f000e2814100040032001240680044002000e1
:1028000003002000ecff37000080ea008180ea002e
:1028100000000600a70280000000200061e7af0072
:10282000feff37000000e0000c003a00010020002d
:10283000a1028800a1802100d22c210031c0ba0061
:102840000080fd003140ba00a7028800000051005e
:102850004220ae000000050010000500040020002a
:10286000050020000570a000a50288001401ba0030
:102870009481ba004c13de00c419dd00068071009b
:102880000281ea00f4ff200004016100eeff37003e
:102890000000fe0061e7af00feff3700003b88004c
:1028a000274380006428ef00013bb800613221001b
:1028b000b709b00081005300b81702000000000003
:1028c000313b88008000eb00373b880061e7a800bf
:1028d00000000000000000000200a600d417020063
:1028e000000000008003eb000208a30061e7af00d6
:1028f000feff3a0061c7a9000200a700d41702003a
:1029000000000000000006005e0800000200000059
:102910008000000054090000020000008000000058
:10292000560900000200000080000000600800005e
:1029300002000000800000006208000002000000a9
:102940008000000064080000020000008000000019
:102950005a09000002000000800000005c0900002d
:102960000200000080000000580800000400000081
:1029700080000000000000000400fa00881f7800ba
:102980008a9fbe00b0bf9f00c1bf9f0002047800b5
:102990000405be000a0037006a805700bc1602001a
:1029a00000000000800f5500818f5d00030039009a
:1029b000820f5500838f5d000500390064045400c8
:1029c0000800e000f4ff3a000000eb0001003700cf
:1029d000100020004f05be004f0478000080fa0070
:1029e00000000600110020000f00a70001002000d9
:1029f0008209200007003700110020000f00a70007
:102a0000010020000000e0004220af0000000500af
:102a100082082000800990004818de004220ae00a5
:102a200000000500431ade000400a100040141007b
:102a3000ef8161001218a5000080d200e080400004
:102a40001298ad00000006000000eb00c04a8800ac
:102a500000962000304b8800001920003043880089
:102a6000a08620000000e000020032006a28ef008b
:102a70006c68ef0040002000a00c880092a1ef00dd
:102a8000410020008008dd00a9c0bf006f40600049
:102a900001407000a9e0b7009860a80095e1a80087
:102aa000000006000001eb006022b8000100e00019
:102ab00011003200b11fe9000e003300f3ff2000c7
:102ac00031037800cc33de000303630002034300cc
:102ad00000a8a5001638a5000428ad004200aa00f1
:102ae0004220ae001638ad008502e800cf1fe90095
:102af000f3ff3b008f87e900040078000000060028
:102b00000000fe0061e7af00feff3700a202800078
:102b1000a10288000308bb00a2028800103b8800c5
:102b2000213b88002004240060c7a80060c7ae00d5
:102b30001084b2000001eb00513e20004a14020054
:102b40000000000061e7af00feff370061c7a90089
:102b5000000006006008e20006003200e08c200061
:102b60002af7070082428000934280008091200073
:102b700048000700921f8400a31f8400e00f51004b
:102b8000e08f590005003c00e04280009008900072
:102b90000158a30001003200d9fc07000000eb003f
:102ba00000000600889fbe008a9fbe000004be0091
:102bb000fa150200000000000005be008001eb00d5
:102bc0000300e0004220ae000140fe00fa150200c2
:102bd000000000000a0250008b82580004015400db
:102be00085815c00f6ff31004f05be004f04be003a
:102bf00000000600374380000003eb00c54a800058
:102c0000344b800017801200b4001b0034011b00fd
:102c100094011b00354b8000640252000520e10046
:102c2000f6ff3a00840820000400b0001430a6002b
:102c30000000060020622100ac1702000000000026
:102c4000ecff3700811f7800829fbe008001eb00ff
:102c5000314b8000688168003119e80031994900e2
:102c60001189490064015100324b8800810820001d
:102c70000100b0001130a100010021000100e000be
:102c80004220ae00014001004f01be00cf0078009d
:102c900000400600831f7800821f7800801f7800a4
:102ca000fa15020000000000cf0378004f0040003a
:102cb000cf804800600149006c08ac005702be009c
:102cc00080237800812b7800822b78004220af008f
:102cd0006c08a9000000520081805a000000060024
:102ce000881f7800000478001801780088007800b8
:102cf0000000eb00ec10020000000000180890003b
:102d00000040a100100c9800180890000050a1008d
:102d1000100c9800180890000060a100100c98009a
:102d2000100020004f04780000000600a20280007e
:102d3000a1028800f37f20008380ea000080600009
:102d40000082eb0061e7af00feff370010c2ba005f
:102d5000b000ba00010262008480ea0004003a0078
:102d60008381e900f9ff3100a2028800100005000c
:102d7000a202880000000500a7028000300278004f
:102d8000a0027800000000006418420060884a0039
:102d9000a50288000483e80061e7af00feff37006a
:102da0001400ba009480ba004200af005420ec0036
:102db0001601ba009681ba00a7028800000006003a
:102dc0000202e90005003300810170000300a60043
:102dd0000300370004800900315878000000060025
:102de0008201d1008301e900030033000380090060
:102df000311878000200a700315878000000060062
:102e00008002eb000508780032009800410098002d
:102e10001100980021009800530098006400980069
:102e2000750098008080eb000108980001002800e0
:102e30001108980000000600a1862000010037005c
:102e400082007800110178000200e00004003200e6
:102e5000800f5100faff3a0090087800100005003a
:102e6000000005006bfe07000000e00006003200d5
:102e70000201fc00609520000088eb000c180200a5
:102e8000000000000000fe00000006008109200094
:102e90000f00a7008108200000099000c311de0088
:102ea0006701610061c079000200de00610060001e
:102eb00000000600608620000000e00004003200f0
:102ec000800920000000b0001030a4004200ae00d5
:102ed0000000050010000500801f78000000eb00d6
:102ee000ce170200000000004f006000ce17020065
:102ef000000000000080ea0000000600f5428000ab
:102f0000160020000500e00002003200050001006c
:102f1000000378000600780000000600ffffff00b5
:102f2000a2028000a102880061e7af00feff370027
:102f30009080ba001000ba00a202880000000600cb
:102f40000200e000030032000201e90002800900f3
:102f5000015878000000060011028000c808dd005a
:102f60004460af000170a000cf9f700000400100de
:102f700000082000cf1f70001002800000400600f3
:102f80006300b8008100d1000080d300000006007b
:102f90009bc0a8009be0a80000000600013e28009e
:102fa00052150400000000004800dd00cf1f700033
:102fb00000400600ffffff00ffffff00ffffff00d4
:102fc000ffffff00ffffff00ffffff00ffffff000d
:102fd000ffffff00ffffff00ffffff00ffffff00fd
:102fe000ffffff00ffffff00ffffff00ffffff00ed
:102ff000ffffff00ffffff00ffffff00ffffff00dd
:020000040000fa
:10300000ffffff00ffffff00ffffff00ffffff00cc
:10301000ffffff00ffcd1200ba19040000000000fe
:020000040000fa
:103020000a1a0400000000000a1a04000000000050
:103030000a1a0400000000000a1a04000000000040
:103040000a1a0400000000000a1a04000000000030
:103050000a1a0400000000000a1a04000000000020
:103060000a1a0400000000000a1a04000000000010
:103070000a1a0400000000002216040000000000ec
:103080000a1a0400000000000a1a040000000000f0
:103090000a1a0400000000000a1a040000000000e0
:1030a0000a1a0400000000000a1a040000000000d0
:1030b0000a1a0400000000000a1a040000000000c0
:1030c0000a1a0400000000000a1a040000000000b0
:1030d0000a1a0400000000000a1a040000000000a0
:1030e0000a1a0400000000000a1a04000000000090
:1030f0000a1a0400000000000a1a04000000000080
:103100000a1a0400000000000a1a0400000000006f
:103110000a1a0400000000000a1a0400000000005f
:103120000a1a0400000000000a1a0400000000004f
:103130000a1a0400000000000a1a0400000000003f
:103140000a1a0400000000009e02040000000000b3
:1031500038030400000000000a1a04000000000008
:103160000a1a0400000000000a1a0400000000000f
:103170000a1a0400000000000a1a040000000000ff
:103180000a1a0400000000000a1a040000000000ef
:103190000a1a0400000000000a1a040000000000df
:1031a0000a1a0400000000000a1a040000000000cf
:1031b0000a1a0400000000000a1a040000000000bf
:1031c0000a1a0400000000000a1a040000000000af
:1031d0000a1a0400000000000a1a0400000000009f
:1031e0000a1a0400000000000a1a0400000000008f
:1031f0000a1a0400000000000a1a0400000000007f
:103200000a1a0400000000000a1a0400000000006e
:103210000a1a0400000000000a1a0400000000005e
:103220000a1a0400000000000a1a0400000000004e
:103230000a1a0400000000000a1a0400000000003e
:103240000a1a0400000000000a1a0400000000002e
:103250000a1a0400000000000a1a0400000000001e
:103260000a1a0400000000000a1a0400000000000e
:103270000a1a0400000000000a1a040000000000fe
:103280000a1a0400000000000a1a040000000000ee
:103290000a1a0400000000000a1a040000000000de
:1032a0000a1a0400000000000a1a040000000000ce
:1032b0000a1a0400000000000a1a040000000000be
:1032c0000a1a0400000000000a1a040000000000ae
:1032d0000a1a0400000000000a1a0400000000009e
:1032e0000a1a0400000000000a1a0400000000008e
:1032f0000a1a0400000000000a1a0400000000007e
:103300000a1a0400000000000a1a0400000000006d
:103310000a1a0400000000000a1a0400000000005d
:103320000a1a0400000000000a1a0400000000004d
:103330000a1a0400000000000a1a0400000000003d
:103340000a1a0400000000000a1a0400000000002d
:103350000a1a0400000000000a1a0400000000001d
:103360000a1a0400000000000a1a0400000000000d
:020000040000fa
:04337000ffffff005c
:020000040000fa
:103374000f9720000eff27000e01880000000000b8
:10338400000020000000e0000200320000012000e4
:103394002002880014000700270007000000e00056
:1033a40003003a0000002000010020000200370062
:1033b4000000200001002000810f70000100320095
:1033c400eef30700000020000000e00002003200dd
:1033d4000000020000000000201a020000000000ab
:1033e4000040da000000fe004440a9002000200054
:1033f4000000e0000300320000202000900188005b
:103404004440a80000000600521a04000000000016
:10341400809fbe000000fa000040da000104800032
:103424000070280000806000000488000080fa001a
:0c3434004f00be00004006000000050034
:020000040000fa
:103440000400fa0020a52100f0428800e9fd0700f1
:10345000008fbe00e7fd07003e015000ae8158001e
:10346000a0428000b14280008100d1000080d300e2
:10347000800f5100818f590008003600a042800063
:10348000b14280008100d1000080d3001e0f4000b7
:103490005e97480010002000c0fe07000140fe00bb
:1034a000ecff37000a00fa00000f780011079800bf
:1034b0002207980033079800440798001000200066
:0834c0000080fa000000060084
:020000040000fa
:020000040015e5
:047e0000ffff000080
:020000040000fa
:020000040015e5
:047e300008ff000047
:020000040000fa
:020000040015e5
:047e380019ff00002e
:020000040000fa
:020000040015e5
:047e4000caf700007d
:020000040000fa
:020000040015e5
:047e4800fbff00003c
:020000040000fa
:020000040015e5
:047e5000de7f0000d1
:020000040000fa
:020000040015e5
:047e5800efff000038
:00000001FF
